:1000000000180020C100000009120000CD110000FE
:10001000CD110000CD110000CD110000CD11000068
:10002000CD110000CD110000CD110000091200001B
:1000300009120000CD110000511000002111000034
:100040000912000009120000091200000912000044
:100050000912000009120000091200000912000034
:100060000912000009120000091200000912000024
:100070004112000019130000F113000009120000E2
:100080000912000009120000091200000912000004
:1000900009120000091200000912000009120000F4
:1000A000D90700000912000009120000091200001F
:1000B00009120000091200000912000009120000D4
:1000C000F8B501F0A5F80821474A484B1A60484A9C
:1000D000484B1A60484A494B1A60494B1A780A4201
:1000E00002D01A780A431A702A22464B46481A70E0
:1000F00000234649464C1A188A4203D2E558043375
:100100001560F8E70021434B434A934201D202C3F2
:10011000FBE70023414A424958589446985004331B
:10012000C02BF9D100210326FF2580248A083D4BEE
:100130009200D2180B002F003340DB009F40106864
:100140000131B84307002000984003003B4313608F
:100150002029EBD16246344B1A608A22334B1A7045
:10016000334B663A5A707C321A709E3A9979114232
:10017000FCD0102299791142FCD10C209A792C499B
:100180000240082AFAD1053A0A713D324A71203AF2
:1001900099791142FCD0402299791142FCD025492D
:1001A000254A11602021224A117014399A790A4097
:1001B0000C2AFBD1214A224B1A60224A224B1A6098
:1001C0000022224B1A60224B07321A60214A224B2E
:1001D0001A6062B600F000FA01F0A0FA01F01EF811
:1001E00000F05EF9FEE7C046300004F034800440C1
:1001F000823F0000388004400100000F3C80044032
:1002000002D0074000E0074020FDFF1FC4FDFF1F94
:1002100018190000C4FDFF1F8400002000F9FF1F13
:100220000000000000E400E008ED00E0005006409F
:10023000004006400000011044800440C000050555
:10024000048004407FBB000014E000E018E000E000
:1002500010E000E00000202020ED00E0FFFFFFFFA5
:10026000FFFFFFFFFFFFFFFFFFFFFFFFFFFFFFFF9E
:10027000FFFFFFFFFFFFFFFFFFFFFFFFFFFFFFFF8E
:10028000FFFFFFFFFFFFFFFFFFFFFFFFFFFFFFFF7E
:10029000FFFFFFFFFFFFFFFFFFFFFFFFFFFFFFFF6E
:1002A000FFFFFFFFFFFFFFFFFFFFFFFFFFFFFFFF5E
:1002B000FFFFFFFFFFFFFFFFFFFFFFFFFFFFFFFF4E
:1002C000FFFFFFFFFFFFFFFFFFFFFFFFFFFFFFFF3E
:1002D000FFFFFFFFFFFFFFFFFFFFFFFFFFFFFFFF2E
:1002E000FFFFFFFFFFFFFFFFFFFFFFFFFFFFFFFF1E
:1002F000FFFFFFFFFFFFFFFFFFFFFFFFFFFFFFFF0E
:10030000FFFFFFFFFFFFFFFFFFFFFFFFFFFFFFFFFD
:10031000FFFFFFFFFFFFFFFFFFFFFFFFFFFFFFFFED
:10032000FFFFFFFFFFFFFFFFFFFFFFFFFFFFFFFFDD
:10033000FFFFFFFFFFFFFFFFFFFFFFFFFFFFFFFFCD
:10034000FFFFFFFFFFFFFFFFFFFFFFFFFFFFFFFFBD
:10035000FFFFFFFFFFFFFFFFFFFFFFFFFFFFFFFFAD
:10036000FFFFFFFFFFFFFFFFFFFFFFFFFFFFFFFF9D
:10037000FFFFFFFFFFFFFFFFFFFFFFFFFFFFFFFF8D
:10038000FFFFFFFFFFFFFFFFFFFFFFFFFFFFFFFF7D
:10039000FFFFFFFFFFFFFFFFFFFFFFFFFFFFFFFF6D
:1003A000FFFFFFFFFFFFFFFFFFFFFFFFFFFFFFFF5D
:1003B000FFFFFFFFFFFFFFFFFFFFFFFFFFFFFFFF4D
:1003C000FFFFFFFFFFFFFFFFFFFFFFFFFFFFFFFF3D
:1003D000FFFFFFFFFFFFFFFFFFFFFFFFFFFFFFFF2D
:1003E000FFFFFFFFFFFFFFFFFFFFFFFFFFFFFFFF1D
:1003F000FFFFFFFFFFFFFFFFFFFFFFFFFFFFFFFF0D
:10040000FFFFFFFFFFFFFFFFFFFFFFFFDEF9FFFF23
:1004100010B5064C2378002B07D1054B002B02D0DA
:10042000044800E000BF0123237010BDC4FDFF1F7E
:100430000000000018190000084B10B5002B03D075
:100440000749084800E000BF07480368002B00D1B7
:1004500010BD064B002BFBD09847F9E700000000C9
:10046000C8FDFF1F18190000C4FDFF1F0000000099
:1004700010B501210D2000F03BF810BD10B5FA2495
:100480000121A4000D2000F013F8200000F08AF8EC
:1004900000210D2000F00CF8200000F083F810BDC2
:1004A00010B5FFF7E5FFFFF7E9FF00F055FDFAE7AC
:1004B00010B51A2818D80C2358430C4A8358101822
:1004C0001C7D027A224205D0002901D01A710BE06E
:1004D0001A7209E043681A68002902D003210A430E
:1004E00001E002218A431A6010BDC046681700006F
:1004F000F0B51A282FD80C2217004743164CE519DF
:100500006B682600012901D0042911D150433458C9
:100510003018257D027A20202A432275A22252001B
:100520001A601A68042901D1024313E0824311E0E2
:1005300038592C7A027DA24302758022002908D006
:10054000022902D10422FF3204E00022032901D152
:10055000812252001A60F0BD6817000072B60C4B81
:100560001A680C4B18680C4B1B6862B65B0104D50B
:10057000322393429B415B42C018084B9A1A084BA6
:100580005A43FA239B005843920D10187047C046F7
:1005900018E000E0E0FDFF1F04ED00E07FBB00007D
:1005A0005555010070B50400FFF7D8FF0500002C79
:1005B0000FD0FFF7D3FF074B401B984206D9013CF1
:1005C000002C06D0FA239B00ED18F2E700F0C4FCE3
:1005D000EFE770BDE703000080221E4BD20510B587
:1005E0001A608022002012061A601B4B1B491860FB
:1005F0001B4B1C4A1960282313601B4A1B4C1360B9
:100600001B4A13601B4A13601B4A13601B4A13608A
:10061000092222601A4C20601A4C21601A4C236077
:100620001A4C23601A4C22601A4C20601A48016050
:100630001A490B601A490B601A4B1A6000F07EFDD4
:100640001920FFF7AFFF00F0B5FB1420FF30FFF7D4
:10065000A9FF10BD00E100E004800340FFBF0000DF
:10066000088003400C800340148003400080034056
:100670001C800340248003402C80034034800340CE
:1006800004900340089003400C90034014900340F2
:100690000090034004A0034008A003400CA00340C6
:1006A00014A0034000A003400223F0B50A4A0B4EF9
:1006B0001478C8272343DB00F518686008480578DC
:1006C000002D00D1403F09040F43F75001235D4046
:1006D0005C4005701470F0BD4CFEFF1F00F8FF1F5A
:1006E000C4FEFF1FF8B572B60123174A08259446C9
:1006F0001E00164964465A1EA25C2A421AD05F01A7
:100700007C589A00002C05D1CB1908305860104B4A
:10071000CB5109E03243D2005458002C0AD18B1837
:10072000083058600B4B8B500B4A1378013B137009
:1007300062B608E00133052BDCD162B60022064B1D
:100740001A7000F0ADFBF8BDAC18000000F8FF1FF8
:1007500088004000C8004000BAFEFF1F421E10B5CE
:10076000032A30D8022380001843174BC0001B18FF
:1007700072B6164CA05C03280BD800F011FF1604CB
:100780000207052012E0083302200FE0083304209E
:100790000CE00F48920014580E4B002C01D1115060
:1007A00001E09858416099500CE00320A0540A00E1
:1007B00008325A60C822180700D4403A0988090450
:1007C0000A431A6062B610BD00F8FF1FF8FDFF1F54
:1007D00090FEFF1FA0FEFF1FF7B5B64B1C781D0053
:1007E0000423E4B21C421DD0B34B1B78002B16D05F
:1007F000B24A1378DBB2002B05D0013BDBB2137099
:10080000002B00D100BEAE4A1378DBB2002B06D01D
:10081000013BDBB21370002B01D100F079FB042205
:10082000A44B1A700822224000D159E2A54BA64FD2
:100830001B78DBB29C08E4001D093C19002D00D098
:10084000DFE1226863689006000F01380C2800D9A8
:10085000D3E100F0AFFE96019601D201D201D201A0
:10086000D201D201D201AF01D201D201D2010D00D9
:100870001A68964E5B689649736000230B600121ED
:10088000944832602060944C92B22170934C3B614A
:10089000BB610190A24218D8D020C000824200D390
:1008A000E7E081204000824200D1C4E006D8802ADF
:1008B00000D1A9E0822A00D1ABE0F7E0884B9A4250
:1008C00000D1C7E0FF33FF331AE08648824200D1EF
:1008D00054E110D888231B019A4200D18EE0803366
:1008E0009A4200D0E2E03C003D00B278724B2034E6
:1008F0001A70A03508E07C498A4200D1CEE07B4BDB
:100900009A4200D114E1D1E080222368134203D03F
:100910006068083800F0C4FA0834AC42F4D100240E
:100920002500734BE058002805D04368009300F081
:10093000B7FA0098F7E76E4B18516E4BE0506E4BCC
:10094000E058002805D04368009300F0A9FA009809
:10095000F7E7694B694A1851694BE0506B00D05278
:10096000684BE85C0238032807D800F019FE02043F
:100970000204002200E001225A5501350434042DFE
:10098000CFD100230124604D2B70604B6049621E63
:10099000E3188A5C9B001A7008231A4220D000F0EA
:1009A00061FA6301002805D0FA1808305060594AEE
:1009B000FA5003E0F8502B7801332B7000F052FA14
:1009C0000122A3001343DB00002805D0FA180830E9
:1009D0005060019AFA5003E0F8502B789B182B7066
:1009E00002210023A2001143C9007B5003210A43C6
:1009F0008A400134BB50052CC7D19AE02E4B464C9F
:100A00001B7823700B0095E0434C23706370022326
:100A100090E07F22B0880240042A47D83E4C9200E2
:100A2000237063703D4BD218022312781A4200D112
:100A300080E021707EE07F23B2881A40042A35D8F6
:100A40007388002B32D10220344992005218117859
:100A5000814329E07F23B2881A40042A26D873886C
:100A6000002B23D102202D49920052181178014306
:100A70001AE07288B1882A4B5C68002C16D018885E
:100A8000904209D15888884206D1120A032A01D11E
:100A900023784FE01B894DE00C33EDE7214A1168C4
:100AA000214A1160B178214A117042E00F221B4B9C
:100AB0001A7063E080200740C3FEFF1F4DFEFF1F3A
:100AC000C5FEFF1F9020074000F8FF1FB0FEFF1F6C
:100AD000E4FDFF1FC8004000C4FEFF1F81060000A8
:100AE0000203000021200000212200002123000039
:100AF0003CFEFF1FE8FDFF1F90FEFF1F6E00002061
:100B0000A0FEFF1FF8FDFF1FBAFEFF1F30C8011037
:100B1000AC18000088004000BBFEFF1FC02007404B
:100B2000B0180000E0FDFF1F80000020D0FEFF1F76
:100B300000231C00F5889D4200D91D002E00402D89
:100B400000D9402620003100FFF7AEFDA419AD1BEF
:100B500003D12F00402E04D010E04027AF4200D92F
:100B60002F0020003900FFF79FFDE419ED1B01D194
:100B7000402F03D1764B1C60764B1D800122764BB3
:100B80003AE07649764A0988914210D100227549A7
:100B9000985C88540132072AFAD10B68862B02D15F
:100BA000714B08321A7000210800FFF77DFD6F4B72
:100BB000236022E0664F3E68002E13D0654B1C88F0
:100BC0002500402C00D9402529003000FFF76CFD9E
:100BD000641B604BA4B21C80002C01D1402D00D1BD
:100BE00074193C60A0225D4BD2001988914204D157
:100BF00000225A709A785E4B1A700122564B1A7076
:100C00006AE008226068013D0838EDB2134037D031
:100C100000F046F95749A8004258574B002A1CD00B
:100C2000566846501100585D0831616003280BD8A2
:100C300000F0B6FC02040608032104E0022102E0F1
:100C4000052100E0042159550821C8230C4200D198
:100C5000403B1288120413433DE0585D032808D836
:100C600000F09EFC3A3A0204002200E001225A55AC
:100C700032E008221440621E944102345C552BE09D
:100C80002268110C8AB2028000291ED03B494380A1
:100C90004360AB005F583A4E002F01D1585001E03D
:100CA000F158486037496D00F0506B5AD2186A52BB
:100CB00000F0D8F8002802D00830606005E0324A21
:100CC000206013780133137006E008231C4201D121
:100CD0002E4B00E0254B236008222D4B1A707CE53B
:100CE000012004421ED002231B49284C0B70294BC3
:100CF000294E1A70294B1C609C60294C1A61DC60DB
:100D00000D249A615E60274B1C70FF23264C2370D4
:100D1000174C2B702270254A13709F22244B1A7097
:100D2000087013E063B2002B04DA0D221D4B1A7019
:100D300080232B700222144204D01B490B78DBB2B3
:100D40000B702A7010231C4200D02B70F7BDC046D8
:100D5000E4FDFF1FB8FEFF1F94200740B0FEFF1FF9
:100D600021200000780000204DFEFF1FC800400039
:100D70009820074090FEFF1FF8FDFF1F3CFEFF1F5D
:100D8000E8FDFF1F6E000020BAFEFF1F8800400034
:100D9000802007404CFEFF1FFCFDFF1F00F8FF1FD7
:100DA00050FEFF1FC0200740882007408C200740CE
:100DB0008420074010B500F08DFB002211001B4B72
:100DC000D150981808324160882AF9D180201849FA
:100DD000C0020A6802430A601A0A1649D2B20A70AF
:100DE0001A0C1549D2B20A70144A1B0E1370FF2355
:100DF000134A00201370134A13491370134A1370D7
:100E000001220A701249087012490A70124A1168C8
:100E100099430B0070210B43136080220F4B520447
:100E20001A6010220E4B1A7010BDC04600F8FF1F4A
:100E3000348004409C200740B0200740B420074085
:100E4000802007408820074094200740102007405A
:100E5000002107408420074018E400E000E100E0A2
:100E60000821074070B572B60B4D2C68200000F0C9
:100E700037FC0B2802DD62B600200CE080231B0645
:100E8000C3409C432C6062B648235843034B181858
:100E900000230360436070BD20FDFF1FC0F9FF1FEA
:100EA00010B504000E484821201A00F08DFB0B28D5
:100EB00014D80C4B1B78002B07D00B4B1B78002B46
:100EC00003D02000FFF70EFC08E072B680231B065B
:100ED000C340064A11680B43136062B610BDC0469A
:100EE000C0F9FF1FBAFEFF1FC3FEFF1F20FDFF1F3B
:100EF000054B9888054B1A68002A03D0138852883E
:100F00009B1AC0187047C0466E000020CCFEFF1F21
:100F100070B50E4B1C78E4B2002C15D10C4D29682D
:100F2000002906D04B8804200B80FFF717FC2C60AB
:100F30000AE0FFF797FF011E03D00420FFF70EFC25
:100F400002E00122034B1A7070BDC046C6FEFF1FAF
:100F5000C8FEFF1FC5FEFF1F70B5234C2378002B72
:100F600040D101332370FFF7C3FF002801D000F008
:100F7000EDFA00F055F9002801D000F0DBF800F0A0
:100F8000BBF9002801D000F0D6F800F021FA0028C3
:100F900001D000F0D1F800232370EFF30583002B7C
:100FA00020D1EFF3108272B6104D2868002803D0CC
:100FB0000F4C2178002903D0002A13D162B611E02A
:100FC0000123237043692B60002B01D0996101E05C
:100FD00008490B60002A00D162B600258368457776
:100FE0009847257070BDC046D1FEFF1FE4FEFF1F6D
:100FF000E8FEFF1FE0FEFF1FEFF3108072B64342D2
:101000005841C0B27047002800D062B67047FFFF59
:1010100010B5FFF7F1FF0C4A1468002C10D063697B
:101020001360002B02D000229A6101E0074A13608E
:10103000FFF7E9FF002320006377A3689847E8E7FC
:10104000FFF7E1FF10BDC046D4FEFF1FD8FEFF1F13
:1010500010B5FFF7DDFF10BD164930B50B68002B4A
:1010600002D18360C36009E004681A68944207D221
:101070000025121B8360C560D8601A60086016E006
:1010800002681C689968121B026000290CD00C6869
:101090000B00A242F4D28160C968A21AC160D86074
:1010A000C16888601A6002E08160C36098600223B2
:1010B000037530BDDCFEFF1F70B5174D2C68002C8A
:1010C00019D02368002B02D0013B236013E0A268F3
:1010D000002A00D0D360002120692A6003682175AE
:1010E0001B68220098476368002BE7D0236020002C
:1010F000FFF7B2FFE2E7FFF77FFF0022074B1C6814
:101100001A60FFF780FF002C05D0A5682000FFF7CC
:10111000A3FF2C00F7E770BDDCFEFF1FECFEFF1FF6
:1011200010B5034A136801331360FFF7C5FF10BD04
:10113000E0FDFF1F704770477047FFFF1B4B1C4AC5
:1011400019781C4B082901D1002102E00A2903D19A
:101150002E311160132206E00C2901D1283100E064
:101160003C21116012221A60134B1A78134B002A8B
:1011700001D0002200E001221A60114B1A78114BB5
:10118000012A01D880220CE0042A01D8842208E038
:10119000082A01D8852204E0102A01D8862200E01E
:1011A00087221A600122084B1A70704724FDFF1F26
:1011B00008B003400CB00340F1FEFF1F20B0034015
:1011C00025FDFF1F24B00340F0FEFF1F70B58025F2
:1011D0008026ED02F6000B4C23682B4201D0FFF76E
:1011E000FBFA2368334201D000F02AF823681B057C
:1011F00001D500F091F82368DB04ECD500F0F8F895
:10120000E9E7C0463480044010B5FFF7DFFFFFFF79
:101210000022014B1A607047008104407047FFFFB5
:10122000054B1878054BC0B21A78D3B2984200D259
:101230004030C01A7047C04675FFFF1FF3FEFF1F06
:1012400030B5234A13799B0611D5224BD4791878EF
:1012500019000130E4B200233F2800DC03001E48DF
:101260000078834203D01D48C454DBB20B70D178A0
:101270001748C9B24BB2002B17DA03795BB2002BC7
:1012800013DA174B174C1D782378DBB29D4202D13D
:101290006C23C37009E001333F2B00D900231248AF
:1012A000C05CDBB2C0B2D0712370402319420ED0B3
:1012B000117919420BD000210C4B19700C4B1B6893
:1012C0008B4202D00B49097819722C23D37030BDA0
:1012D00000A0064075FFFF1FF3FEFF1F34FFFF1F36
:1012E0007CFFFF1F76FFFF1FF4FEFF1FF2FEFF1FB4
:1012F00078FFFF1F74FFFF1F054B1878054BC0B226
:101300001A78D3B2984200D24030C01A7047C04613
:10131000E8FFFF1F7EFFFF1F30B5234A13799B06AE
:1013200011D5224BD479187819000130E4B200238A
:101330003F2800DC03001E480078834203D01D488C
:10134000C454DBB20B70D1781748C9B24BB2002B32
:1013500017DA03795BB2002B13DA174B174C1D78A1
:101360002378DBB29D4202D16C23C37009E00133C4
:10137000272B00D900231248C05CDBB2C0B2D07169
:101380002370402319420ED0117919420BD000214D
:101390000C4B19700C4B1B688B4202D00B4909781F
:1013A00019722C23D37030BD00B00640E8FFFF1F38
:1013B0007EFFFF1FA7FFFF1FF0FFFF1FE9FFFF1FBB
:1013C0007FFFFF1F7DFFFF1FECFFFF1FE7FFFF1FDA
:1013D000054B1878054BC0B21A78D3B2984200D2A8
:1013E0004030C01A7047C04664000020F9FFFF1F5C
:1013F00030B52C4A13799B0623D52B4BD47918781A
:1014000019000130E4B200233F2800DC0300274824
:101410000078834203D02648C454D8B208702549C6
:10142000086800280DD024490978C9B28B4201D33D
:101430005B1A01E05B1A4033272B02DD1F4B1B7840
:101440000371D1781748C9B24BB2002B17DA037970
:101450005BB2002B13DA1A4B174C1D782378DBB2E2
:101460009D4202D16C23C37009E00133272B00D9C0
:1014700000231448C05CDBB2C0B2D071237040239B
:1014800019420ED0117919420BD000210E4B197060
:101490000E4B1B688B4202D00D49097819722C2320
:1014A000D37030BD00C0064064000020F9FFFF1F6C
:1014B00023000020F4FFFF1F650000202200002011
:1014C0006C000020FAFFFF1FF8FFFF1F68000020DC
:1014D0006300002030B585B072B670224121154BF3
:1014E0001A70154A1170154A3239117080221A701B
:1014F0001A7852B2002AFBDA114B186862B6114B07
:10150000984201D80A23584301AC0A22210000F076
:101510001EF800230C48E15C0500002905D05A00A4
:101520008218013351800A2BF5D101335B002B70F7
:1015300005B030BD00000240070002400600024036
:10154000080002407F969800AEFDFF1F7047F8B577
:1015500006000D00170000243900300000F0BAF832
:101560000B003733DBB2092901D83031CBB2300060
:101570002B55390000F028F8061E01D00134EBE7A6
:101580002B1958702B005A1B944206DD1A78295DDE
:1015900019702A550133013CF5E72800F8BDFFFF1B
:1015A00002B4714649084900095C49008E4402BCF6
:1015B0007047C04603B47146490840004900095AC3
:1015C00049008E4403BC7047002243088B4274D309
:1015D00003098B425FD3030A8B4244D3030B8B4234
:1015E00028D3030C8B420DD3FF22090212BA030C3D
:1015F0008B4202D31212090265D0030B8B4219D31E
:1016000000E0090AC30B8B4201D3CB03C01A52413D
:10161000830B8B4201D38B03C01A5241430B8B4285
:1016200001D34B03C01A5241030B8B4201D30B036E
:10163000C01A5241C30A8B4201D3CB02C01A524195
:10164000830A8B4201D38B02C01A5241430A8B4258
:1016500001D34B02C01A5241030A8B4201D30B0241
:10166000C01A5241CDD2C3098B4201D3CB01C01A5B
:10167000524183098B4201D38B01C01A5241430965
:101680008B4201D34B01C01A524103098B4201D353
:101690000B01C01A5241C3088B4201D3CB00C01AC0
:1016A000524183088B4201D38B00C01A5241430838
:1016B0008B4201D34B00C01A5241411A00D201465D
:1016C000524110467047FFE701B5002000F006F8D0
:1016D00002BDC0460029F7D076E770477047C04684
:1016E0001C2101231B04984201D3000C10391B0A52
:1016F000984201D3000A08391B09984201D3000916
:10170000043902A2105C40187047C046040302026C
:101710000101010100000000000000000E4B70B547
:1017200000251E000D4CE41AA410A54204D0AB0005
:10173000F35898470135F8E700F0E4F8084B002526
:101740001E00084CE41AA410A54204D0AB00F358C4
:1017500098470135F8E770BD101900001019000016
:101760001019000014190000420000F840A00440C5
:1017700001000000420000F844A004400200000004
:10178000C00000F800C0044001000000000000F8A4
:101790000490044002000000000000F8089004409B
:1017A00004000000C00000F81CC0044080000000DD
:1017B000C00000F810C0044010000000C00000F895
:1017C00008C0044004000000C00000F80CC0044041
:1017D00008000000800000F80CB004400800000081
:1017E000800000F810B0044010000000800000F8F5
:1017F00018B0044040000000800000F81CB0044015
:1018000080000000800000F814B0044020000000B8
:10181000C00000F804C0044002000000800000F88E
:1018200000B0044001000000400000F800A00440A7
:1018300001000000400000F804A004400200000085
:10184000400000F80CA0044008000000400000F830
:1018500008A0044004000000C00000F814C00440C8
:1018600020000000C00000F818C004404000000044
:10187000800000F804B0044002000000800000F87E
:1018800008B0044004000000020100F850D00440F9
:1018900010000000020100F854D0044020000000B5
:1018A000030100F878D0044040000000001519152D
:1018B0000001000026FDFF1F1200000000020000D2
:1018C00050FDFF1F4300000000030000AAFDFF1FA2
:1018D000000000000103090438FDFF1F00000000A4
:1018E0000203090494FDFF1F000000000303090424
:1018F000AEFDFF1F0000000000000000000000001F
:1019000000000000F8B5C046F8BC08BC9E46704711
:041910003904000096
:04191400F8B5C0461C
:10191800FFFFFFFF0A041201100102000040C01679
:101928008304730201020301180354006500650073
:101938006E00730079006400750069006E006F0026
:1019480009024300020100C032090400000102023A
:1019580001000524001001052401010104240206E8
:101968000524060001070582031000400904010050
:10197800020A000000070503024000000705840270
:101988004000000016035500530042002000530099
:1019980065007200690061006C00040309040C030F
:1019A800000000000000000000000000000000002F
:0419B800000000002B
:00000001FF
